:02000000C8290D
:06000600000000000800EC
:10000C000F3083120313FC004730FD00FD0B0C284E
:0A001C00FC0B0C2800000000080097
:0E002600213083120313FD00FD0B1728080084
:1000340083120313CF1B20288613212886174F1BF6
:100044002528061326280617CF1A2A2886122B28B5
:1000540086164F1A2F2806123028061644183428FC
:10006400061435280610861403208610CF193C2860
:1000740086133D2886174F19412806134228061770
:10008400CF1846288612472886164F184B28061282
:100094004C280616441850280614512806108614B5
:1000A40003208610441C58280620592813200800D1
:0E00B4008312031341088A00400882000800EE
:1000C2008312031344104E08CF001A204414080070
:1000D20083120313F8010830FC00700DF80D740848
:1000E200F80203187628F8070310F00DFC0B6E28AF
:0200F200080004
:1000F40083120313BD011A30FD00FD0B7F2800009D
:10010400851A91283530FD00FD0B8628851E8C2824
:100114000130BD001A30FD00FD0B8E2800000800E0
:10012400A428803083120313CA00B728C030CA0041
:10013400B7289430CA00B728D430CA00B728803012
:10014400CA00B728831203134A08013A03199328F3
:100154004A08023A031998284A08033A03199B28C3
:100164004A08043A03199E28A1284B03F0004A08C0
:10017400F0077008CA0044147008CF001A20441015
:0A0184004C08CF001A2044140800B4
:10018E0083120313F3010830730203180029851A32
:10019E00D128CE281330FD00FD0BD328000000001F
:1001AE00851AEB287308073CF0007008F100013047
:1001BE00F00071080319E728F00D7010FF3EE128DA
:1001CE00F0097008F205FE287308073CF00070086D
:1001DE00F1000130F00071080319F928F00D7010CC
:1001EE00FF3EF3287008F204851EFE28FB28F30A52
:0801FE00CA287208F000080095
:100206005A208A110A128000840AC00A0319C10AF8
:08021600F003031D0329080099
:10021E002129803083120313CA003429C030CA004A
:10022E0034299430CA003429D430CA00342980309D
:10023E00CA003429831203134A08013A03191029FC
:10024E004A08023A031915294A08033A03191829CC
:10025E004A08043A03191B291E294B03F0004A08C9
:10026E00F0077008CA007008CF001A204410CD01A4
:10027E004D084C078400000803194D294D084C0702
:10028E0084000008CE006120CD0A3F2944140800E6
:10029E0083120313CB014B084A078400000803198D
:1002AE0060294B084A0784000008CE006120CB0A63
:0402BE0052290800B9
:1002C200831603138610061006128612061386136F
:1002D2008312861006108613061386120612062053
:1002E200062006208616061686140320861006208F
:1002F200861403208610062086140320861006200A
:100302000612861403208610062086140320861007
:100312008612861786140320861006208613061678
:1003220086140320861006128614032086100620E7
:1003320086140320861006168614032086100620D3
:1003420006128614032086108617061786160616CE
:0C035200861403208610062044140800C6
:10035E00831603138512831285122F30FC00BF30D3
:10036E00FD00FD0BB829FC0BB82900000000851616
:10037E001330FD00FD0BC129000000008316851609
:02038E00080065
:10039000483083120313A0005230A1003D30A20068
:1003A0002030A300A4012030A5002530A600A7011D
:1003B0005430A8004530A9004D30AA005030AB00A1
:1003C0003D30AC002030AD00AE012030AF006F30CA
:1003D000B0004330B100B2016530B3007230B400F8
:1003E0007230B5006F30B6007230B700B801B90195
:1003F000BA01BB01BC01063083169F0061210130A8
:10040000CF001A200C30CF001A20AF217A203D08EF
:10041000013A031D9B2AC7207008C500C720700839
:10042000C600C7207008BF00C7207008BE00C720E4
:100430007008C200C30146084507F000F101031827
:10044000F10A3F08F0070318F10A3E08F007031805
:10045000F10AFF307005F2007108F3000030F30577
:1004600043087306031D362A72084206031D9A2AA2
:100470000A30F4004508F00069207008C9004908F6
:10048000BC000A30F4004508F00069207808F0004C
:100490007008C8004808BA000A30F4003F08F000AD
:1004A00069207008C7004708BB000A30F4003F0805
:1004B000F00069207808F0007008B9003030490772
:1004C000BC0030304807BA0030304707BB0030303E
:1004D0007007B9000130CA000130CB002830CC00D1
:1004E0000F210130CA000730CB003B08CC0092201E
:1004F0000130CA000830CB003908CC0092202F30E0
:10050000CA004F210230CA000130CB002030CC009D
:100510000F210230CA000730CB003C08CC009220EB
:100520000230CA000830CB003A08CC0092202530B7
:10053000CA004F21A52A0130CF001A200130CA007D
:100540000130CB003330CC000F210B30FB002630C4
:10055000FC005D30FD00FD0BAB2AFC0BAB2AFB0B56
:0A056000AB2A00000000052AB42AAF
:02400E004A2F37
:00000001FF
